:0400000050EF00F0CD
:10000800FACF01F0FBCF02F0E9CF03F0EACF04F01A
:10001800E1CF05F0E2CF06F0D9CF07F0DACF08F04C
:10002800F3CF09F0F4CF0AF0F6CF0BF0F7CF0CF0CE
:10003800F8CF0DF0F5CF0EF09EAA01D001D00FD069
:100048002950010D0001600EF324D96E0001000E45
:10005800F420DA6EAECFDFFF292A9E9A00D00EC0B8
:10006800F5FF0DC0F8FF0CC0F7FF0BC0F6FF0AC084
:10007800F4FF09C0F3FF08C0DAFF07C0D9FF06C0C4
:10008800E2FF05C0E1FF04C0EAFF03C0E9FF02C0C8
:10009800FBFF01C0FAFF110078EF01F009D02950E9
:1000A800D8B406D0000100016051070AD8B403D0C3
:1000B800156E050E91D01CC00FF0D4EC01F01DC0D8
:1000C8000FF0D4EC01F0156E020E1A6E15500DD01B
:1000D8001A50010D1C0EF324D96E000EF420DA6EAE
:1000E800DF500F6ED4EC01F01A2A1A50156E166AFA
:1000F8001D50176E186A010E1726000E1822185088
:10010800800A196E1550175C1650800A1958D8B015
:10011800DFD7156E000E296E15505CD02950D8B463
:1001280059D0000100016005D8A454D0156E020E04
:100138000F6E1550D4EC01F0156E000E296E155097
:1001480003D0030E296003D0156E020E45D060C09F
:1001580028F00001000162512626000E27222650B1
:10016800276E266A0001000161512626000E27220B
:10017800156E000E296E1550156E010E2DD04FEC20
:1001880001F0C8EC01F0156E030E0F6E1550D4EC9B
:1001980001F003D0400E296003D0156E030E1CD069
:1001A800156E000E296E155006EC01F0010E285E42
:1001B800D8B407D0156E050E0F6E1550D4EC01F0AB
:1001C8000DD0156E040E08D0156E000E296E155050
:1001D80097EC01F0156E000E1B6E15501B50000AAF
:1001E800D8B49CD7010AD8B4CAD7030AD8B4A9D7B7
:1001F800010AD8B4CFD7070AD8B4E6D7010AD8B4C9
:100208004ED7ECD7000E106E000E0F6E000E126E59
:10021800000E116E2FD0000E146E000E136E1450C7
:10022800800A800F080ED8B4135CD8B010D0000133
:10023800600E1124D96E0001000E1220DA6EDF5014
:10024800F56E114A122A0D00134A142AE8D70A003B
:10025800F29EA684A698550EA76EAA0EA76EA68231
:1002680000F0A694F28E0900010E0F240F6E000E06
:100278001020106E1050800A800F080ED8B40F5C42
:10028800D8B008D01250800A800F400ED8B4115C44
:10029800D8A0C1D7120026C00FF027C010F017D081
:1002A8001050F76E0FC0F6FFA68EA69CA684A688EF
:1002B800F29E550EA76EAA0EA76EA68200F0A6940F
:1002C800F28E400E0F240F6E000E1020106E285074
:1002D800400D2650F3262750F4220F50F35C10509F
:1002E800F458D8A01200DCD700EE60F0400EEE6A99
:1002F800E806FDE1296A286A276A266A9E0EF66ED4
:10030800030EF76E000EF86E00EE1CF010EE0AF009
:100318000900F5CFEEFFE550E150FAE1000EF86E66
:100328000001C0EF01F026C00FF027C010F001D87F
:100338000AD00500FA6E0F50FD6E1050FE6EF85090
:10034800FF6EFA5012001200D08EF28EF28C9D8A47
:10035800000EAC6E000EAB6EAC94190EAF6EAB8E89
:10036800AC8AAB881200000E816E000EB86E000ECB
:10037800B96E949C948E1200B7EC01F0A8EC01F0D1
:1003880052EC00F050EF00F0000EF86E2750F76EB8
:1003980026C0F6FF1200064000003FFF00000000E4
:0A03A8000FC0ADFFACB21200FDD78C
:020000040020DA
:08000000FFFFFFFFFFFFFFFF00
:020000040030CA
:0E000000FFC20F3E3C9D85FF0FC00FE00F407A
:00000001FF
