:0400000050EF00F0CD
:10000800FACF01F0FBCF02F0E9CF03F0EACF04F01A
:10001800E1CF05F0E2CF06F0D9CF07F0DACF08F04C
:10002800F3CF09F0F4CF0AF0F6CF0BF0F7CF0CF0CE
:10003800F8CF0DF0F5CF0EF09EAA01D001D00FD069
:100048002050010D0001600EF324D96E0001000E4E
:10005800F420DA6EAECFDFFF202A9E9A00D00EC0C1
:10006800F5FF0DC0F8FF0CC0F7FF0BC0F6FF0AC084
:10007800F4FF09C0F3FF08C0DAFF07C0D9FF06C0C4
:10008800E2FF05C0E1FF04C0EAFF03C0E9FF02C0C8
:10009800FBFF01C0FAFF110096EF01F077D0205066
:1000A800D8B474D0000100016005D8A46FD0186ED0
:1000B800020E0F6E1850CEEC01F0186E000E206E76
:1000C8001850186E010E64D0C7EC01F0A4EC01F0D2
:1000D80011D0000E106E190E0F6E000E126E550E16
:1000E800116E000E146E040E136E60EC01F0050E16
:1000F800206003D0186E020E4BD0000E106E190E41
:100108000F6E0001000E126E0001600E116E000EDF
:10011800146E040E136E28EC01F010500F10D8B4B2
:1001280007D0186E040E0F6E1850CEEC01F032D0C6
:10013800000164C01EF01F6A186E000E206E185071
:10014800186E030E0F6E1850CEEC01F003D0400E5F
:10015800206003D0186E030E1BD0186E000E206EA0
:100168001850DFEC00F01E06D8A01F061F501E1006
:10017800D8B407D0186E050E0F6E1850CEEC01F0EB
:1001880009D0186E040E04D076EC01F0186E000E3B
:100198001D6E18501D50000AD8B481D7010AD8B472
:1001A80093D7030AD8B495D7010AD8B4D0D7070A89
:1001B800D8B4EAD7EFD7000E106E000E0F6E000EFF
:1001C800126E000E116E2FD0000E146E000E136EFC
:1001D8001450800A800F080ED8B4135CD8B010D021
:1001E8000001600E1124D96E0001000E1220DA6E93
:1001F800DF50F56E114A122A0D00134A142AE8D767
:100208000A00F29EA684A698550EA76EAA0EA76E9F
:10021800A68200F0A694F28E0900010E0F240F6E3C
:10022800000E1020106E1050800A800F080ED8B4EF
:100238000F5CD8B008D01250800A800F400ED8B496
:10024800115CD8A0C1D712002AD011C0D9FF12C0A2
:10025800DAFFDF50156E0FC0D9FF10C0DAFFDF508C
:100268001518D8B418D011C0D9FF12C0DAFFDF5062
:10027800156E166A151E161E154A162A0FC0D9FFC6
:1002880010C0DAFFDF50176E175015240F6E000EDE
:100298001620106E10D00F4A102A114A122A13067F
:1002A800D8A014061328D8B41428D8A4CED7000E82
:1002B800106E000E0F6E12000FC015F010C016F071
:1002C80008D015C0D9FF16C0DAFF11C0DFFF154AE4
:1002D800162A1306D8A014061328D8B41428D8B49C
:1002E8001200EFD7040E106E000E0F6E01D80AD060
:1002F8000500FA6E0F50FD6E1050FE6EF850FF6E3E
:10030800FA5012001200D08EF28EF28C9D8A000EE6
:10031800AC6E000EAB6EAC94190EAF6EAB8EAC8AA1
:10032800AB88120000EE60F0400EEE6AE806FDE1D0
:10033800206A1F6A1E6A000EF86E0001BFEF01F006
:10034800A68EA69CA684A688F29E550EA76EAA0E17
:10035800A76EA68200F0A694F28E1200000E816E9F
:10036800000EB86E000EB96E949C948E0F6E000E3F
:10037800206E0F501200B2EC01F087EC01F052EC45
:1003880000F050EF00F0000EF86E040EF76E000E4D
:0E039800F66E12000FC0ADFFACB21200FDD722
:020000040020DA
:08000000FFFFFFFFFFFFFFFF00
:020000040030CA
:0E000000FFC20F3E3C9D85FF0FC00FE00F407A
:00000001FF
